{
  "contractName": "AutoFeed",
  "abi": [
    {
      "inputs": [],
      "stateMutability": "nonpayable",
      "type": "constructor"
    },
    {
      "anonymous": false,
      "inputs": [
        {
          "indexed": true,
          "internalType": "uint256",
          "name": "id",
          "type": "uint256"
        },
        {
          "indexed": true,
          "internalType": "uint256",
          "name": "times",
          "type": "uint256"
        }
      ],
      "name": "History",
      "type": "event"
    },
    {
      "anonymous": false,
      "inputs": [
        {
          "indexed": true,
          "internalType": "address",
          "name": "previousOwner",
          "type": "address"
        },
        {
          "indexed": true,
          "internalType": "address",
          "name": "newOwner",
          "type": "address"
        }
      ],
      "name": "OwnershipTransferred",
      "type": "event"
    },
    {
      "anonymous": false,
      "inputs": [
        {
          "indexed": false,
          "internalType": "address",
          "name": "account",
          "type": "address"
        }
      ],
      "name": "Paused",
      "type": "event"
    },
    {
      "anonymous": false,
      "inputs": [
        {
          "indexed": false,
          "internalType": "address",
          "name": "account",
          "type": "address"
        }
      ],
      "name": "Unpaused",
      "type": "event"
    },
    {
      "inputs": [],
      "name": "owner",
      "outputs": [
        {
          "internalType": "address",
          "name": "",
          "type": "address"
        }
      ],
      "stateMutability": "view",
      "type": "function"
    },
    {
      "inputs": [],
      "name": "paused",
      "outputs": [
        {
          "internalType": "bool",
          "name": "",
          "type": "bool"
        }
      ],
      "stateMutability": "view",
      "type": "function"
    },
    {
      "inputs": [],
      "name": "renounceOwnership",
      "outputs": [],
      "stateMutability": "nonpayable",
      "type": "function"
    },
    {
      "inputs": [
        {
          "internalType": "address",
          "name": "newOwner",
          "type": "address"
        }
      ],
      "name": "transferOwnership",
      "outputs": [],
      "stateMutability": "nonpayable",
      "type": "function"
    },
    {
      "inputs": [],
      "name": "pause",
      "outputs": [],
      "stateMutability": "nonpayable",
      "type": "function"
    },
    {
      "inputs": [],
      "name": "unpause",
      "outputs": [],
      "stateMutability": "nonpayable",
      "type": "function"
    },
    {
      "inputs": [],
      "name": "input",
      "outputs": [],
      "stateMutability": "nonpayable",
      "type": "function"
    },
    {
      "inputs": [
        {
          "internalType": "uint256",
          "name": "from",
          "type": "uint256"
        },
        {
          "internalType": "uint256",
          "name": "to",
          "type": "uint256"
        }
      ],
      "name": "showHistory",
      "outputs": [
        {
          "internalType": "uint256[]",
          "name": "",
          "type": "uint256[]"
        },
        {
          "internalType": "uint256[]",
          "name": "",
          "type": "uint256[]"
        }
      ],
      "stateMutability": "view",
      "type": "function"
    }
  ],
  "bytecode": "0x608060405234801561001057600080fd5b5061002d61002261006060201b60201c565b61006860201b60201c565b60008060146101000a81548160ff02191690831515021790555061005b600161012c60201b6107971760201c565b610142565b600033905090565b60008060009054906101000a900473ffffffffffffffffffffffffffffffffffffffff169050816000806101000a81548173ffffffffffffffffffffffffffffffffffffffff021916908373ffffffffffffffffffffffffffffffffffffffff1602179055508173ffffffffffffffffffffffffffffffffffffffff168173ffffffffffffffffffffffffffffffffffffffff167f8be0079c531659141344cd1fd0a4f28419497f9722a3daafe3b4186f6b6457e060405160405180910390a35050565b6001816000016000828254019250508190555050565b61104f806101516000396000f3fe608060405234801561001057600080fd5b50600436106100885760003560e01c80638456cb591161005b5780638456cb59146100f05780638da5cb5b146100fa578063eaed3f4f14610118578063f2fde38b1461012257610088565b80633f4ba83a1461008d5780635c975abb146100975780636d17ba9c146100b5578063715018a6146100e6575b600080fd5b61009561013e565b005b61009f61020b565b6040516100ac91906109e6565b60405180910390f35b6100cf60048036038101906100ca9190610a3c565b610221565b6040516100dd929190610b3a565b60405180910390f35b6100ee6103f5565b005b6100f861047d565b005b61010261054b565b60405161010f9190610bb2565b60405180910390f35b610120610574565b005b61013c60048036038101906101379190610bf9565b61069f565b005b6101466107ad565b73ffffffffffffffffffffffffffffffffffffffff1661016461054b565b73ffffffffffffffffffffffffffffffffffffffff16146101ba576040517f08c379a00000000000000000000000000000000000000000000000000000000081526004016101b190610c83565b60405180910390fd5b6101c261020b565b610201576040517f08c379a00000000000000000000000000000000000000000000000000000000081526004016101f890610cef565b60405180910390fd5b6102096107b5565b565b60008060149054906101000a900460ff16905090565b6060806000841180156102345750600083115b610273576040517f08c379a000000000000000000000000000000000000000000000000000000000815260040161026a90610d5b565b60405180910390fd5b8284116102b5576040517f08c379a00000000000000000000000000000000000000000000000000000000081526004016102ac90610dc7565b60405180910390fd5b6000849050600084866102c89190610e16565b905060008167ffffffffffffffff8111156102e6576102e5610e4a565b5b6040519080825280602002602001820160405280156103145781602001602082028036833780820191505090505b50905060008267ffffffffffffffff81111561033357610332610e4a565b5b6040519080825280602002602001820160405280156103615781602001602082028036833780820191505090505b50905060005b838110156103e3578483828151811061038357610382610e79565b5b60200260200101818152505060026000868152602001908152602001600020548282815181106103b6576103b5610e79565b5b60200260200101818152505084806103cd90610ea8565b95505080806103db90610ed2565b915050610367565b50818195509550505050509250929050565b6103fd6107ad565b73ffffffffffffffffffffffffffffffffffffffff1661041b61054b565b73ffffffffffffffffffffffffffffffffffffffff1614610471576040517f08c379a000000000000000000000000000000000000000000000000000000000815260040161046890610c83565b60405180910390fd5b61047b6000610856565b565b6104856107ad565b73ffffffffffffffffffffffffffffffffffffffff166104a361054b565b73ffffffffffffffffffffffffffffffffffffffff16146104f9576040517f08c379a00000000000000000000000000000000000000000000000000000000081526004016104f090610c83565b60405180910390fd5b61050161020b565b15610541576040517f08c379a000000000000000000000000000000000000000000000000000000000815260040161053890610f67565b60405180910390fd5b61054961091a565b565b60008060009054906101000a900473ffffffffffffffffffffffffffffffffffffffff16905090565b61057c6107ad565b73ffffffffffffffffffffffffffffffffffffffff1661059a61054b565b73ffffffffffffffffffffffffffffffffffffffff16146105f0576040517f08c379a00000000000000000000000000000000000000000000000000000000081526004016105e790610c83565b60405180910390fd5b6105f861020b565b15610638576040517f08c379a000000000000000000000000000000000000000000000000000000000815260040161062f90610f67565b60405180910390fd5b600061064460016109bd565b9050600042905080600260008481526020019081526020016000208190555080827fb0030169f5eefb90e982b118b3555dce42f9b5c8c2a6d40c9b59a1f013a07c2a60405160405180910390a361069b6001610797565b5050565b6106a76107ad565b73ffffffffffffffffffffffffffffffffffffffff166106c561054b565b73ffffffffffffffffffffffffffffffffffffffff161461071b576040517f08c379a000000000000000000000000000000000000000000000000000000000815260040161071290610c83565b60405180910390fd5b600073ffffffffffffffffffffffffffffffffffffffff168173ffffffffffffffffffffffffffffffffffffffff16141561078b576040517f08c379a000000000000000000000000000000000000000000000000000000000815260040161078290610ff9565b60405180910390fd5b61079481610856565b50565b6001816000016000828254019250508190555050565b600033905090565b6107bd61020b565b6107fc576040517f08c379a00000000000000000000000000000000000000000000000000000000081526004016107f390610cef565b60405180910390fd5b60008060146101000a81548160ff0219169083151502179055507f5db9ee0a495bf2e6ff9c91a7834c1ba4fdd244a5e8aa4e537bd38aeae4b073aa61083f6107ad565b60405161084c9190610bb2565b60405180910390a1565b60008060009054906101000a900473ffffffffffffffffffffffffffffffffffffffff169050816000806101000a81548173ffffffffffffffffffffffffffffffffffffffff021916908373ffffffffffffffffffffffffffffffffffffffff1602179055508173ffffffffffffffffffffffffffffffffffffffff168173ffffffffffffffffffffffffffffffffffffffff167f8be0079c531659141344cd1fd0a4f28419497f9722a3daafe3b4186f6b6457e060405160405180910390a35050565b61092261020b565b15610962576040517f08c379a000000000000000000000000000000000000000000000000000000000815260040161095990610f67565b60405180910390fd5b6001600060146101000a81548160ff0219169083151502179055507f62e78cea01bee320cd4e420270b5ea74000d11b0c9f74754ebdbfc544b05a2586109a66107ad565b6040516109b39190610bb2565b60405180910390a1565b600081600001549050919050565b60008115159050919050565b6109e0816109cb565b82525050565b60006020820190506109fb60008301846109d7565b92915050565b600080fd5b6000819050919050565b610a1981610a06565b8114610a2457600080fd5b50565b600081359050610a3681610a10565b92915050565b60008060408385031215610a5357610a52610a01565b5b6000610a6185828601610a27565b9250506020610a7285828601610a27565b9150509250929050565b600081519050919050565b600082825260208201905092915050565b6000819050602082019050919050565b610ab181610a06565b82525050565b6000610ac38383610aa8565b60208301905092915050565b6000602082019050919050565b6000610ae782610a7c565b610af18185610a87565b9350610afc83610a98565b8060005b83811015610b2d578151610b148882610ab7565b9750610b1f83610acf565b925050600181019050610b00565b5085935050505092915050565b60006040820190508181036000830152610b548185610adc565b90508181036020830152610b688184610adc565b90509392505050565b600073ffffffffffffffffffffffffffffffffffffffff82169050919050565b6000610b9c82610b71565b9050919050565b610bac81610b91565b82525050565b6000602082019050610bc76000830184610ba3565b92915050565b610bd681610b91565b8114610be157600080fd5b50565b600081359050610bf381610bcd565b92915050565b600060208284031215610c0f57610c0e610a01565b5b6000610c1d84828501610be4565b91505092915050565b600082825260208201905092915050565b7f4f776e61626c653a2063616c6c6572206973206e6f7420746865206f776e6572600082015250565b6000610c6d602083610c26565b9150610c7882610c37565b602082019050919050565b60006020820190508181036000830152610c9c81610c60565b9050919050565b7f5061757361626c653a206e6f7420706175736564000000000000000000000000600082015250565b6000610cd9601483610c26565b9150610ce482610ca3565b602082019050919050565b60006020820190508181036000830152610d0881610ccc565b9050919050565b7f4552525348310000000000000000000000000000000000000000000000000000600082015250565b6000610d45600683610c26565b9150610d5082610d0f565b602082019050919050565b60006020820190508181036000830152610d7481610d38565b9050919050565b7f4552525348320000000000000000000000000000000000000000000000000000600082015250565b6000610db1600683610c26565b9150610dbc82610d7b565b602082019050919050565b60006020820190508181036000830152610de081610da4565b9050919050565b7f4e487b7100000000000000000000000000000000000000000000000000000000600052601160045260246000fd5b6000610e2182610a06565b9150610e2c83610a06565b925082821015610e3f57610e3e610de7565b5b828203905092915050565b7f4e487b7100000000000000000000000000000000000000000000000000000000600052604160045260246000fd5b7f4e487b7100000000000000000000000000000000000000000000000000000000600052603260045260246000fd5b6000610eb382610a06565b91506000821415610ec757610ec6610de7565b5b600182039050919050565b6000610edd82610a06565b91507fffffffffffffffffffffffffffffffffffffffffffffffffffffffffffffffff821415610f1057610f0f610de7565b5b600182019050919050565b7f5061757361626c653a2070617573656400000000000000000000000000000000600082015250565b6000610f51601083610c26565b9150610f5c82610f1b565b602082019050919050565b60006020820190508181036000830152610f8081610f44565b9050919050565b7f4f776e61626c653a206e6577206f776e657220697320746865207a65726f206160008201527f6464726573730000000000000000000000000000000000000000000000000000602082015250565b6000610fe3602683610c26565b9150610fee82610f87565b604082019050919050565b6000602082019050818103600083015261101281610fd6565b905091905056fea2646970667358221220eec2c2db0e794aa0c6db2e2d13a5f630d85c8229582f826c4589f484edb0081764736f6c634300080a0033",
  "immutableReferences": {},
  "source": "// SPDX-License-Identifier: MIT\r\npragma solidity >=0.4.22 <0.9.0;\r\n\r\nimport \"@openzeppelin/contracts/access/Ownable.sol\";\r\nimport \"@openzeppelin/contracts/utils/Counters.sol\";\r\nimport \"@openzeppelin/contracts/security/Pausable.sol\";\r\n\r\ncontract AutoFeed is Ownable, Pausable {\r\n    using Counters for Counters.Counter;\r\n    Counters.Counter private ids;\r\n\r\n    mapping(uint => uint) private history;\r\n    event History(uint indexed id, uint indexed times);\r\n\r\n    constructor() {\r\n        ids.increment();\r\n    }\r\n\r\n    function pause() external onlyOwner whenNotPaused {\r\n        _pause();\r\n    }\r\n\r\n    function unpause() external onlyOwner whenPaused {\r\n        _unpause();\r\n    }\r\n\r\n    function input() external onlyOwner whenNotPaused {\r\n        uint _id = ids.current();\r\n        uint _times = block.timestamp;\r\n        history[_id] = _times;\r\n        emit History(_id, _times);\r\n        ids.increment();\r\n    }\r\n\r\n    function showHistory(uint from, uint to) external view returns(uint[] memory, uint[] memory) {\r\n        require(from > 0 && to > 0, \"ERRSH1\");\r\n        require(from > to, \"ERRSH2\");\r\n        uint num = from;\r\n        uint length = from - to;\r\n        uint[] memory _ids = new uint[](length);\r\n        uint[] memory _times = new uint[](length);\r\n        for (uint i = 0; i < length; i++) {\r\n            _ids[i] = num;\r\n            _times[i] = history[num];\r\n            num--;\r\n        }\r\n        return (_ids, _times);\r\n    }\r\n}",
  "sourcePath": "E:\\sementara\\ryan\\contract\\AutoFeedContract\\contracts\\AutoFeed.sol",
  "compiler": {
    "name": "solc",
    "version": "0.8.10+commit.fc410830.Emscripten.clang"
  },
  "schemaVersion": "3.4.4",
  "updatedAt": "2022-01-22T19:52:55.010Z",
  "devdoc": {
    "kind": "dev",
    "methods": {
      "owner()": {
        "details": "Returns the address of the current owner."
      },
      "paused()": {
        "details": "Returns true if the contract is paused, and false otherwise."
      },
      "renounceOwnership()": {
        "details": "Leaves the contract without owner. It will not be possible to call `onlyOwner` functions anymore. Can only be called by the current owner. NOTE: Renouncing ownership will leave the contract without an owner, thereby removing any functionality that is only available to the owner."
      },
      "transferOwnership(address)": {
        "details": "Transfers ownership of the contract to a new account (`newOwner`). Can only be called by the current owner."
      }
    },
    "version": 1
  },
  "userdoc": {
    "kind": "user",
    "methods": {},
    "version": 1
  }
}