{
  "contractName": "AutoFeed",
  "abi": [
    {
      "inputs": [],
      "stateMutability": "nonpayable",
      "type": "constructor"
    },
    {
      "anonymous": false,
      "inputs": [
        {
          "indexed": true,
          "internalType": "uint256",
          "name": "id",
          "type": "uint256"
        },
        {
          "indexed": true,
          "internalType": "uint256",
          "name": "times",
          "type": "uint256"
        }
      ],
      "name": "History",
      "type": "event"
    },
    {
      "anonymous": false,
      "inputs": [
        {
          "indexed": true,
          "internalType": "address",
          "name": "previousOwner",
          "type": "address"
        },
        {
          "indexed": true,
          "internalType": "address",
          "name": "newOwner",
          "type": "address"
        }
      ],
      "name": "OwnershipTransferred",
      "type": "event"
    },
    {
      "inputs": [],
      "name": "owner",
      "outputs": [
        {
          "internalType": "address",
          "name": "",
          "type": "address"
        }
      ],
      "stateMutability": "view",
      "type": "function"
    },
    {
      "inputs": [],
      "name": "renounceOwnership",
      "outputs": [],
      "stateMutability": "nonpayable",
      "type": "function"
    },
    {
      "inputs": [
        {
          "internalType": "address",
          "name": "newOwner",
          "type": "address"
        }
      ],
      "name": "transferOwnership",
      "outputs": [],
      "stateMutability": "nonpayable",
      "type": "function"
    },
    {
      "inputs": [],
      "name": "changeState",
      "outputs": [],
      "stateMutability": "nonpayable",
      "type": "function"
    },
    {
      "inputs": [],
      "name": "showState",
      "outputs": [
        {
          "internalType": "bool",
          "name": "",
          "type": "bool"
        }
      ],
      "stateMutability": "view",
      "type": "function"
    },
    {
      "inputs": [],
      "name": "input",
      "outputs": [],
      "stateMutability": "nonpayable",
      "type": "function"
    },
    {
      "inputs": [
        {
          "internalType": "uint256",
          "name": "from",
          "type": "uint256"
        },
        {
          "internalType": "uint256",
          "name": "to",
          "type": "uint256"
        }
      ],
      "name": "showHistory",
      "outputs": [
        {
          "internalType": "uint256[]",
          "name": "",
          "type": "uint256[]"
        },
        {
          "internalType": "uint256[]",
          "name": "",
          "type": "uint256[]"
        }
      ],
      "stateMutability": "view",
      "type": "function"
    }
  ],
  "bytecode": "0x608060405234801561001057600080fd5b5061002d61002261006160201b60201c565b61006960201b60201c565b6000600260006101000a81548160ff02191690831515021790555061005c600161012d60201b6106761760201c565b610143565b600033905090565b60008060009054906101000a900473ffffffffffffffffffffffffffffffffffffffff169050816000806101000a81548173ffffffffffffffffffffffffffffffffffffffff021916908373ffffffffffffffffffffffffffffffffffffffff1602179055508173ffffffffffffffffffffffffffffffffffffffff168173ffffffffffffffffffffffffffffffffffffffff167f8be0079c531659141344cd1fd0a4f28419497f9722a3daafe3b4186f6b6457e060405160405180910390a35050565b6001816000016000828254019250508190555050565b610d12806101526000396000f3fe608060405234801561001057600080fd5b506004361061007d5760003560e01c80638da5cb5b1161005b5780638da5cb5b146100c7578063c7007371146100e5578063eaed3f4f14610103578063f2fde38b1461010d5761007d565b80636d17ba9c14610082578063715018a6146100b35780638412e667146100bd575b600080fd5b61009c600480360381019061009791906107a1565b610129565b6040516100aa92919061089f565b60405180910390f35b6100bb6102fd565b005b6100c5610385565b005b6100cf61045b565b6040516100dc9190610917565b60405180910390f35b6100ed610484565b6040516100fa919061094d565b60405180910390f35b61010b61049b565b005b61012760048036038101906101229190610994565b61057e565b005b60608060008411801561013c5750600083115b61017b576040517f08c379a000000000000000000000000000000000000000000000000000000000815260040161017290610a1e565b60405180910390fd5b8284116101bd576040517f08c379a00000000000000000000000000000000000000000000000000000000081526004016101b490610a8a565b60405180910390fd5b6000849050600084866101d09190610ad9565b905060008167ffffffffffffffff8111156101ee576101ed610b0d565b5b60405190808252806020026020018201604052801561021c5781602001602082028036833780820191505090505b50905060008267ffffffffffffffff81111561023b5761023a610b0d565b5b6040519080825280602002602001820160405280156102695781602001602082028036833780820191505090505b50905060005b838110156102eb578483828151811061028b5761028a610b3c565b5b60200260200101818152505060036000868152602001908152602001600020548282815181106102be576102bd610b3c565b5b60200260200101818152505084806102d590610b6b565b95505080806102e390610b95565b91505061026f565b50818195509550505050509250929050565b61030561068c565b73ffffffffffffffffffffffffffffffffffffffff1661032361045b565b73ffffffffffffffffffffffffffffffffffffffff1614610379576040517f08c379a000000000000000000000000000000000000000000000000000000000815260040161037090610c2a565b60405180910390fd5b6103836000610694565b565b61038d61068c565b73ffffffffffffffffffffffffffffffffffffffff166103ab61045b565b73ffffffffffffffffffffffffffffffffffffffff1614610401576040517f08c379a00000000000000000000000000000000000000000000000000000000081526004016103f890610c2a565b60405180910390fd5b60011515600260009054906101000a900460ff161515141561043d576000600260006101000a81548160ff021916908315150217905550610459565b6001600260006101000a81548160ff0219169083151502179055505b565b60008060009054906101000a900473ffffffffffffffffffffffffffffffffffffffff16905090565b6000600260009054906101000a900460ff16905090565b6104a361068c565b73ffffffffffffffffffffffffffffffffffffffff166104c161045b565b73ffffffffffffffffffffffffffffffffffffffff1614610517576040517f08c379a000000000000000000000000000000000000000000000000000000000815260040161050e90610c2a565b60405180910390fd5b60006105236001610758565b9050600042905080600360008481526020019081526020016000208190555080827fb0030169f5eefb90e982b118b3555dce42f9b5c8c2a6d40c9b59a1f013a07c2a60405160405180910390a361057a6001610676565b5050565b61058661068c565b73ffffffffffffffffffffffffffffffffffffffff166105a461045b565b73ffffffffffffffffffffffffffffffffffffffff16146105fa576040517f08c379a00000000000000000000000000000000000000000000000000000000081526004016105f190610c2a565b60405180910390fd5b600073ffffffffffffffffffffffffffffffffffffffff168173ffffffffffffffffffffffffffffffffffffffff16141561066a576040517f08c379a000000000000000000000000000000000000000000000000000000000815260040161066190610cbc565b60405180910390fd5b61067381610694565b50565b6001816000016000828254019250508190555050565b600033905090565b60008060009054906101000a900473ffffffffffffffffffffffffffffffffffffffff169050816000806101000a81548173ffffffffffffffffffffffffffffffffffffffff021916908373ffffffffffffffffffffffffffffffffffffffff1602179055508173ffffffffffffffffffffffffffffffffffffffff168173ffffffffffffffffffffffffffffffffffffffff167f8be0079c531659141344cd1fd0a4f28419497f9722a3daafe3b4186f6b6457e060405160405180910390a35050565b600081600001549050919050565b600080fd5b6000819050919050565b61077e8161076b565b811461078957600080fd5b50565b60008135905061079b81610775565b92915050565b600080604083850312156107b8576107b7610766565b5b60006107c68582860161078c565b92505060206107d78582860161078c565b9150509250929050565b600081519050919050565b600082825260208201905092915050565b6000819050602082019050919050565b6108168161076b565b82525050565b6000610828838361080d565b60208301905092915050565b6000602082019050919050565b600061084c826107e1565b61085681856107ec565b9350610861836107fd565b8060005b83811015610892578151610879888261081c565b975061088483610834565b925050600181019050610865565b5085935050505092915050565b600060408201905081810360008301526108b98185610841565b905081810360208301526108cd8184610841565b90509392505050565b600073ffffffffffffffffffffffffffffffffffffffff82169050919050565b6000610901826108d6565b9050919050565b610911816108f6565b82525050565b600060208201905061092c6000830184610908565b92915050565b60008115159050919050565b61094781610932565b82525050565b6000602082019050610962600083018461093e565b92915050565b610971816108f6565b811461097c57600080fd5b50565b60008135905061098e81610968565b92915050565b6000602082840312156109aa576109a9610766565b5b60006109b88482850161097f565b91505092915050565b600082825260208201905092915050565b7f4552525348310000000000000000000000000000000000000000000000000000600082015250565b6000610a086006836109c1565b9150610a13826109d2565b602082019050919050565b60006020820190508181036000830152610a37816109fb565b9050919050565b7f4552525348320000000000000000000000000000000000000000000000000000600082015250565b6000610a746006836109c1565b9150610a7f82610a3e565b602082019050919050565b60006020820190508181036000830152610aa381610a67565b9050919050565b7f4e487b7100000000000000000000000000000000000000000000000000000000600052601160045260246000fd5b6000610ae48261076b565b9150610aef8361076b565b925082821015610b0257610b01610aaa565b5b828203905092915050565b7f4e487b7100000000000000000000000000000000000000000000000000000000600052604160045260246000fd5b7f4e487b7100000000000000000000000000000000000000000000000000000000600052603260045260246000fd5b6000610b768261076b565b91506000821415610b8a57610b89610aaa565b5b600182039050919050565b6000610ba08261076b565b91507fffffffffffffffffffffffffffffffffffffffffffffffffffffffffffffffff821415610bd357610bd2610aaa565b5b600182019050919050565b7f4f776e61626c653a2063616c6c6572206973206e6f7420746865206f776e6572600082015250565b6000610c146020836109c1565b9150610c1f82610bde565b602082019050919050565b60006020820190508181036000830152610c4381610c07565b9050919050565b7f4f776e61626c653a206e6577206f776e657220697320746865207a65726f206160008201527f6464726573730000000000000000000000000000000000000000000000000000602082015250565b6000610ca66026836109c1565b9150610cb182610c4a565b604082019050919050565b60006020820190508181036000830152610cd581610c99565b905091905056fea264697066735822122095c85975468f10ee121587891c9553f73b574dc73f16410eb68866b058fb47a864736f6c634300080a0033",
  "immutableReferences": {},
  "source": "// SPDX-License-Identifier: MIT\r\npragma solidity >=0.4.22 <0.9.0;\r\n\r\nimport \"@openzeppelin/contracts/access/Ownable.sol\";\r\nimport \"@openzeppelin/contracts/utils/Counters.sol\";\r\n\r\ncontract AutoFeed is Ownable {\r\n    using Counters for Counters.Counter;\r\n    Counters.Counter private ids;\r\n\r\n    bool private stateAF;\r\n\r\n    mapping(uint => uint) private history;\r\n    event History(uint indexed id, uint indexed times);\r\n\r\n    constructor() {\r\n        stateAF = false;\r\n        ids.increment();\r\n    }\r\n\r\n    function changeState() external onlyOwner {\r\n        if (stateAF == true) {\r\n            stateAF = false;\r\n        } else {\r\n            stateAF = true;\r\n        }\r\n    }\r\n\r\n    function showState() external view returns(bool) {\r\n        return stateAF;\r\n    }\r\n\r\n    function input() external onlyOwner {\r\n        uint _id = ids.current();\r\n        uint _times = block.timestamp;\r\n        history[_id] = _times;\r\n        emit History(_id, _times);\r\n        ids.increment();\r\n    }\r\n\r\n    function showHistory(uint from, uint to) external view returns(uint[] memory, uint[] memory) {\r\n        require(from > 0 && to > 0, \"ERRSH1\");\r\n        require(from > to, \"ERRSH2\");\r\n        uint num = from;\r\n        uint length = from - to;\r\n        uint[] memory _ids = new uint[](length);\r\n        uint[] memory _times = new uint[](length);\r\n        for (uint i = 0; i < length; i++) {\r\n            _ids[i] = num;\r\n            _times[i] = history[num];\r\n            num--;\r\n        }\r\n        return (_ids, _times);\r\n    }\r\n}",
  "sourcePath": "E:\\sementara\\ryan\\contract\\AutoFeedContract\\contracts\\AutoFeed.sol",
  "compiler": {
    "name": "solc",
    "version": "0.8.10+commit.fc410830.Emscripten.clang"
  },
  "schemaVersion": "3.4.4",
  "updatedAt": "2022-01-16T06:53:24.360Z",
  "devdoc": {
    "kind": "dev",
    "methods": {
      "owner()": {
        "details": "Returns the address of the current owner."
      },
      "renounceOwnership()": {
        "details": "Leaves the contract without owner. It will not be possible to call `onlyOwner` functions anymore. Can only be called by the current owner. NOTE: Renouncing ownership will leave the contract without an owner, thereby removing any functionality that is only available to the owner."
      },
      "transferOwnership(address)": {
        "details": "Transfers ownership of the contract to a new account (`newOwner`). Can only be called by the current owner."
      }
    },
    "version": 1
  },
  "userdoc": {
    "kind": "user",
    "methods": {},
    "version": 1
  }
}